{
  "_format": "hh-sol-artifact-1",
  "contractName": "MyEpicNFT",
  "sourceName": "contracts/MyEpicNFT.sol",
  "abi": [
    {
      "inputs": [],
      "stateMutability": "nonpayable",
      "type": "constructor"
    },
    {
      "anonymous": false,
      "inputs": [
        {
          "indexed": true,
          "internalType": "address",
          "name": "owner",
          "type": "address"
        },
        {
          "indexed": true,
          "internalType": "address",
          "name": "approved",
          "type": "address"
        },
        {
          "indexed": true,
          "internalType": "uint256",
          "name": "tokenId",
          "type": "uint256"
        }
      ],
      "name": "Approval",
      "type": "event"
    },
    {
      "anonymous": false,
      "inputs": [
        {
          "indexed": true,
          "internalType": "address",
          "name": "owner",
          "type": "address"
        },
        {
          "indexed": true,
          "internalType": "address",
          "name": "operator",
          "type": "address"
        },
        {
          "indexed": false,
          "internalType": "bool",
          "name": "approved",
          "type": "bool"
        }
      ],
      "name": "ApprovalForAll",
      "type": "event"
    },
    {
      "anonymous": false,
      "inputs": [
        {
          "indexed": false,
          "internalType": "address",
          "name": "sender",
          "type": "address"
        },
        {
          "indexed": false,
          "internalType": "uint256",
          "name": "tokenId",
          "type": "uint256"
        }
      ],
      "name": "NewEpicNFTMinted",
      "type": "event"
    },
    {
      "anonymous": false,
      "inputs": [
        {
          "indexed": true,
          "internalType": "address",
          "name": "from",
          "type": "address"
        },
        {
          "indexed": true,
          "internalType": "address",
          "name": "to",
          "type": "address"
        },
        {
          "indexed": true,
          "internalType": "uint256",
          "name": "tokenId",
          "type": "uint256"
        }
      ],
      "name": "Transfer",
      "type": "event"
    },
    {
      "inputs": [
        {
          "internalType": "address",
          "name": "to",
          "type": "address"
        },
        {
          "internalType": "uint256",
          "name": "tokenId",
          "type": "uint256"
        }
      ],
      "name": "approve",
      "outputs": [],
      "stateMutability": "nonpayable",
      "type": "function"
    },
    {
      "inputs": [
        {
          "internalType": "address",
          "name": "owner",
          "type": "address"
        }
      ],
      "name": "balanceOf",
      "outputs": [
        {
          "internalType": "uint256",
          "name": "",
          "type": "uint256"
        }
      ],
      "stateMutability": "view",
      "type": "function"
    },
    {
      "inputs": [
        {
          "internalType": "uint256",
          "name": "tokenId",
          "type": "uint256"
        }
      ],
      "name": "getApproved",
      "outputs": [
        {
          "internalType": "address",
          "name": "",
          "type": "address"
        }
      ],
      "stateMutability": "view",
      "type": "function"
    },
    {
      "inputs": [],
      "name": "getTotalNFTs",
      "outputs": [
        {
          "internalType": "uint256",
          "name": "",
          "type": "uint256"
        }
      ],
      "stateMutability": "view",
      "type": "function"
    },
    {
      "inputs": [],
      "name": "getTotalNFTsMintedSoFar",
      "outputs": [
        {
          "internalType": "uint256",
          "name": "",
          "type": "uint256"
        }
      ],
      "stateMutability": "view",
      "type": "function"
    },
    {
      "inputs": [
        {
          "internalType": "address",
          "name": "owner",
          "type": "address"
        },
        {
          "internalType": "address",
          "name": "operator",
          "type": "address"
        }
      ],
      "name": "isApprovedForAll",
      "outputs": [
        {
          "internalType": "bool",
          "name": "",
          "type": "bool"
        }
      ],
      "stateMutability": "view",
      "type": "function"
    },
    {
      "inputs": [],
      "name": "makeAnEpicNFT",
      "outputs": [],
      "stateMutability": "nonpayable",
      "type": "function"
    },
    {
      "inputs": [],
      "name": "name",
      "outputs": [
        {
          "internalType": "string",
          "name": "",
          "type": "string"
        }
      ],
      "stateMutability": "view",
      "type": "function"
    },
    {
      "inputs": [
        {
          "internalType": "uint256",
          "name": "tokenId",
          "type": "uint256"
        }
      ],
      "name": "ownerOf",
      "outputs": [
        {
          "internalType": "address",
          "name": "",
          "type": "address"
        }
      ],
      "stateMutability": "view",
      "type": "function"
    },
    {
      "inputs": [
        {
          "internalType": "uint256",
          "name": "tokenId",
          "type": "uint256"
        }
      ],
      "name": "pickRandomColor",
      "outputs": [
        {
          "internalType": "string",
          "name": "",
          "type": "string"
        }
      ],
      "stateMutability": "view",
      "type": "function"
    },
    {
      "inputs": [
        {
          "internalType": "uint256",
          "name": "tokenId",
          "type": "uint256"
        }
      ],
      "name": "pickRandomFirstWord",
      "outputs": [
        {
          "internalType": "string",
          "name": "",
          "type": "string"
        }
      ],
      "stateMutability": "view",
      "type": "function"
    },
    {
      "inputs": [
        {
          "internalType": "uint256",
          "name": "tokenId",
          "type": "uint256"
        }
      ],
      "name": "pickRandomSecondWord",
      "outputs": [
        {
          "internalType": "string",
          "name": "",
          "type": "string"
        }
      ],
      "stateMutability": "view",
      "type": "function"
    },
    {
      "inputs": [
        {
          "internalType": "uint256",
          "name": "tokenId",
          "type": "uint256"
        }
      ],
      "name": "pickRandomThirdWord",
      "outputs": [
        {
          "internalType": "string",
          "name": "",
          "type": "string"
        }
      ],
      "stateMutability": "view",
      "type": "function"
    },
    {
      "inputs": [
        {
          "internalType": "address",
          "name": "from",
          "type": "address"
        },
        {
          "internalType": "address",
          "name": "to",
          "type": "address"
        },
        {
          "internalType": "uint256",
          "name": "tokenId",
          "type": "uint256"
        }
      ],
      "name": "safeTransferFrom",
      "outputs": [],
      "stateMutability": "nonpayable",
      "type": "function"
    },
    {
      "inputs": [
        {
          "internalType": "address",
          "name": "from",
          "type": "address"
        },
        {
          "internalType": "address",
          "name": "to",
          "type": "address"
        },
        {
          "internalType": "uint256",
          "name": "tokenId",
          "type": "uint256"
        },
        {
          "internalType": "bytes",
          "name": "_data",
          "type": "bytes"
        }
      ],
      "name": "safeTransferFrom",
      "outputs": [],
      "stateMutability": "nonpayable",
      "type": "function"
    },
    {
      "inputs": [
        {
          "internalType": "address",
          "name": "operator",
          "type": "address"
        },
        {
          "internalType": "bool",
          "name": "approved",
          "type": "bool"
        }
      ],
      "name": "setApprovalForAll",
      "outputs": [],
      "stateMutability": "nonpayable",
      "type": "function"
    },
    {
      "inputs": [
        {
          "internalType": "bytes4",
          "name": "interfaceId",
          "type": "bytes4"
        }
      ],
      "name": "supportsInterface",
      "outputs": [
        {
          "internalType": "bool",
          "name": "",
          "type": "bool"
        }
      ],
      "stateMutability": "view",
      "type": "function"
    },
    {
      "inputs": [],
      "name": "symbol",
      "outputs": [
        {
          "internalType": "string",
          "name": "",
          "type": "string"
        }
      ],
      "stateMutability": "view",
      "type": "function"
    },
    {
      "inputs": [
        {
          "internalType": "uint256",
          "name": "tokenId",
          "type": "uint256"
        }
      ],
      "name": "tokenURI",
      "outputs": [
        {
          "internalType": "string",
          "name": "",
          "type": "string"
        }
      ],
      "stateMutability": "view",
      "type": "function"
    },
    {
      "inputs": [
        {
          "internalType": "address",
          "name": "from",
          "type": "address"
        },
        {
          "internalType": "address",
          "name": "to",
          "type": "address"
        },
        {
          "internalType": "uint256",
          "name": "tokenId",
          "type": "uint256"
        }
      ],
      "name": "transferFrom",
      "outputs": [],
      "stateMutability": "nonpayable",
      "type": "function"
    }
  ],
  "bytecode": "0x6080604052600560085560405180610100016040528060d381526020016200504860d39139600990805190602001906200003b92919062001131565b506040518060800160405280605681526020016200511b60569139600a90805190602001906200006d92919062001131565b506040518061028001604052806040518060400160405280600881526020017f416972706c616e6500000000000000000000000000000000000000000000000081525081526020016040518060400160405280600281526020017f557000000000000000000000000000000000000000000000000000000000000081525081526020016040518060400160405280600581526020017f526f636b7900000000000000000000000000000000000000000000000000000081525081526020016040518060400160405280600781526020017f4d656d656e746f0000000000000000000000000000000000000000000000000081525081526020016040518060400160405280600481526020017f4a6177730000000000000000000000000000000000000000000000000000000081525081526020016040518060400160405280600981526020017f4368696e61746f776e000000000000000000000000000000000000000000000081525081526020016040518060400160405280600a81526020017f476f6f6466656c6c61730000000000000000000000000000000000000000000081525081526020016040518060400160405280600a81526020017f43617361626c616e63610000000000000000000000000000000000000000000081525081526020016040518060400160405280600881526020017f506172617369746500000000000000000000000000000000000000000000000081525081526020016040518060400160405280600781526020017f546974616e69630000000000000000000000000000000000000000000000000081525081526020016040518060400160405280600c81526020017f416e6e6968696c6174696f6e000000000000000000000000000000000000000081525081526020016040518060400160405280600581526020017f4a6f6b657200000000000000000000000000000000000000000000000000000081525081526020016040518060400160405280600681526020017f4d696e617269000000000000000000000000000000000000000000000000000081525081526020016040518060400160405280600d81526020017f547261696e73706f7474696e670000000000000000000000000000000000000081525081526020016040518060400160405280600681526020017f50737963686f000000000000000000000000000000000000000000000000000081525081526020016040518060400160405280600681526020017f4765744f7574000000000000000000000000000000000000000000000000000081525081526020016040518060400160405280600981526020017f4d6f6f6e6c69676874000000000000000000000000000000000000000000000081525081526020016040518060400160405280600381526020017f486572000000000000000000000000000000000000000000000000000000000081525081526020016040518060400160405280600781526020017f426f79686f6f640000000000000000000000000000000000000000000000000081525081526020016040518060400160405280600881526020017f436c75656c657373000000000000000000000000000000000000000000000000815250815250600b90601462000526929190620011c2565b506040518061020001604052806040518060400160405280600981526020017f4b6174686d616e6475000000000000000000000000000000000000000000000081525081526020016040518060400160405280600981526020017f416d7374657264616d000000000000000000000000000000000000000000000081525081526020016040518060400160405280600881526020017f57696e64686f656b00000000000000000000000000000000000000000000000081525081526020016040518060400160405280600481526020017f4f736c6f0000000000000000000000000000000000000000000000000000000081525081526020016040518060400160405280600681526020017f4d616e696c61000000000000000000000000000000000000000000000000000081525081526020016040518060400160405280600681526020017f4c6973626f6e000000000000000000000000000000000000000000000000000081525081526020016040518060400160405280600981526020017f427563757265737469000000000000000000000000000000000000000000000081525081526020016040518060400160405280600981526020017f4564696e6275726768000000000000000000000000000000000000000000000081525081526020016040518060400160405280600581526020017f44616b617200000000000000000000000000000000000000000000000000000081525081526020016040518060400160405280600681526020017f4d6164726964000000000000000000000000000000000000000000000000000081525081526020016040518060400160405280600581526020017f4162756a6100000000000000000000000000000000000000000000000000000081525081526020016040518060400160405280600681526020017f4c6f6e646f6e000000000000000000000000000000000000000000000000000081525081526020016040518060400160405280600a81526020017f57617368696e67746f6e0000000000000000000000000000000000000000000081525081526020016040518060400160405280600781526020017f436172646966660000000000000000000000000000000000000000000000000081525081526020016040518060400160405280600881526020017f446a69626f75746900000000000000000000000000000000000000000000000081525081526020016040518060400160405280600681526020017f4f74746177610000000000000000000000000000000000000000000000000000815250815250600c906010620008f392919062001229565b506040518061028001604052806040518060400160405280600581526020017f486f6e646100000000000000000000000000000000000000000000000000000081525081526020016040518060400160405280600481526020017f417564690000000000000000000000000000000000000000000000000000000081525081526020016040518060400160405280600781526020017f466572726172690000000000000000000000000000000000000000000000000081525081526020016040518060400160405280600581526020017f4d617a646100000000000000000000000000000000000000000000000000000081525081526020016040518060400160405280600981526020017f416c6661526f6d656f000000000000000000000000000000000000000000000081525081526020016040518060400160405280600481526020017f466f72640000000000000000000000000000000000000000000000000000000081525081526020016040518060400160405280600681526020017f4a6167756172000000000000000000000000000000000000000000000000000081525081526020016040518060400160405280600481526020017f42656e7a0000000000000000000000000000000000000000000000000000000081525081526020016040518060400160405280600681526020017f546f796f7461000000000000000000000000000000000000000000000000000081525081526020016040518060400160405280600381526020017f424d57000000000000000000000000000000000000000000000000000000000081525081526020016040518060400160405280600b81526020017f4173746f6e4d617274696e00000000000000000000000000000000000000000081525081526020016040518060400160405280600781526020017f4d634c6172656e0000000000000000000000000000000000000000000000000081525081526020016040518060400160405280600981526020017f4c616e64526f766572000000000000000000000000000000000000000000000081525081526020016040518060400160405280600781526020017f42656e746c65790000000000000000000000000000000000000000000000000081525081526020016040518060400160405280600b81526020017f4c616d626f726768696e6900000000000000000000000000000000000000000081525081526020016040518060400160405280600a81526020017f52616e6765526f7665720000000000000000000000000000000000000000000081525081526020016040518060400160405280600681526020017f537562617275000000000000000000000000000000000000000000000000000081525081526020016040518060400160405280600a81526020017f4d6974737562697368690000000000000000000000000000000000000000000081525081526020016040518060400160405280600681526020017f4e697373616e000000000000000000000000000000000000000000000000000081525081526020016040518060400160405280600581526020017f4c65787573000000000000000000000000000000000000000000000000000000815250815250600d90601462000dac929190620011c2565b506040518060e001604052806040518060400160405280600781526020017f233030303030300000000000000000000000000000000000000000000000000081525081526020016040518060400160405280600781526020017f233136333265350000000000000000000000000000000000000000000000000081525081526020016040518060400160405280600781526020017f233639373638390000000000000000000000000000000000000000000000000081525081526020016040518060400160405280600781526020017f233337643637610000000000000000000000000000000000000000000000000081525081526020016040518060400160405280600781526020017f233535353535350000000000000000000000000000000000000000000000000081525081526020016040518060400160405280600781526020017f236666386136350000000000000000000000000000000000000000000000000081525081526020016040518060400160405280600781526020017f2362613638633800000000000000000000000000000000000000000000000000815250815250600e90600762000f6592919062001290565b5034801562000f7357600080fd5b506040518060400160405280600981526020017f5371756172654e465400000000000000000000000000000000000000000000008152506040518060400160405280600681526020017f5351554152450000000000000000000000000000000000000000000000000000815250816000908051906020019062000ff892919062001131565b5080600190805190602001906200101192919062001131565b5050506200105f6040518060400160405280601e81526020017f54686973206973206d79204e465420636f6e74726163742e20576f61682100008152506200106560201b620014461760201c565b620014b1565b62001105816040516024016200107c9190620013c5565b6040516020818303038152906040527f41304fac000000000000000000000000000000000000000000000000000000007bffffffffffffffffffffffffffffffffffffffffffffffffffffffff19166020820180517bffffffffffffffffffffffffffffffffffffffffffffffffffffffff83818316178352505050506200110860201b60201c565b50565b60008151905060006a636f6e736f6c652e6c6f679050602083016000808483855afa5050505050565b8280546200113f906200143b565b90600052602060002090601f016020900481019282620011635760008555620011af565b82601f106200117e57805160ff1916838001178555620011af565b82800160010185558215620011af579182015b82811115620011ae57825182559160200191906001019062001191565b5b509050620011be9190620012f7565b5090565b82805482825590600052602060002090810192821562001216579160200282015b82811115620012155782518290805190602001906200120492919062001131565b5091602001919060010190620011e3565b5b50905062001225919062001316565b5090565b8280548282559060005260206000209081019282156200127d579160200282015b828111156200127c5782518290805190602001906200126b92919062001131565b50916020019190600101906200124a565b5b5090506200128c919062001316565b5090565b828054828255906000526020600020908101928215620012e4579160200282015b82811115620012e3578251829080519060200190620012d292919062001131565b5091602001919060010190620012b1565b5b509050620012f3919062001316565b5090565b5b8082111562001312576000816000905550600101620012f8565b5090565b5b808211156200133a57600081816200133091906200133e565b5060010162001317565b5090565b5080546200134c906200143b565b6000825580601f1062001360575062001381565b601f016020900490600052602060002090810190620013809190620012f7565b5b50565b60006200139182620013e9565b6200139d8185620013f4565b9350620013af81856020860162001405565b620013ba81620014a0565b840191505092915050565b60006020820190508181036000830152620013e1818462001384565b905092915050565b600081519050919050565b600082825260208201905092915050565b60005b838110156200142557808201518184015260208101905062001408565b8381111562001435576000848401525b50505050565b600060028204905060018216806200145457607f821691505b602082108114156200146b576200146a62001471565b5b50919050565b7f4e487b7100000000000000000000000000000000000000000000000000000000600052602260045260246000fd5b6000601f19601f8301169050919050565b613b8780620014c16000396000f3fe608060405234801561001057600080fd5b506004361061012c5760003560e01c80636352211e116100ad578063b88d4fde11610071578063b88d4fde14610369578063c575757a14610385578063c87b56dd146103b5578063de9d132f146103e5578063e985e9c5146103ef5761012c565b80636352211e1461029f57806370a08231146102cf57806395d89b41146102ff578063a22cb4651461031d578063b187301f146103395761012c565b806323b872dd116100f457806323b872dd146101e95780632de38d681461020557806330bdb3511461023557806342842e0e14610253578063514dc8c61461026f5761012c565b806301ffc9a714610131578063060475901461016157806306fdde031461017f578063081812fc1461019d578063095ea7b3146101cd575b600080fd5b61014b600480360381019061014691906126d9565b61041f565b60405161015891906133dd565b60405180910390f35b610169610501565b6040516101769190613678565b60405180910390f35b610187610512565b60405161019491906133f8565b60405180910390f35b6101b760048036038101906101b2919061272b565b6105a4565b6040516101c4919061334d565b60405180910390f35b6101e760048036038101906101e2919061269d565b610629565b005b61020360048036038101906101fe9190612597565b610741565b005b61021f600480360381019061021a919061272b565b6107a1565b60405161022c91906133f8565b60405180910390f35b61023d6108bf565b60405161024a9190613678565b60405180910390f35b61026d60048036038101906102689190612597565b6108c9565b005b6102896004803603810190610284919061272b565b6108e9565b60405161029691906133f8565b60405180910390f35b6102b960048036038101906102b4919061272b565b610a07565b6040516102c6919061334d565b60405180910390f35b6102e960048036038101906102e49190612532565b610ab9565b6040516102f69190613678565b60405180910390f35b610307610b71565b60405161031491906133f8565b60405180910390f35b61033760048036038101906103329190612661565b610c03565b005b610353600480360381019061034e919061272b565b610d84565b60405161036091906133f8565b60405180910390f35b610383600480360381019061037e91906125e6565b610ea2565b005b61039f600480360381019061039a919061272b565b610f04565b6040516103ac91906133f8565b60405180910390f35b6103cf60048036038101906103ca919061272b565b611022565b6040516103dc91906133f8565b60405180910390f35b6103ed611174565b005b6104096004803603810190610404919061255b565b6113b2565b60405161041691906133dd565b60405180910390f35b60007f80ac58cd000000000000000000000000000000000000000000000000000000007bffffffffffffffffffffffffffffffffffffffffffffffffffffffff1916827bffffffffffffffffffffffffffffffffffffffffffffffffffffffff191614806104ea57507f5b5e139f000000000000000000000000000000000000000000000000000000007bffffffffffffffffffffffffffffffffffffffffffffffffffffffff1916827bffffffffffffffffffffffffffffffffffffffffffffffffffffffff1916145b806104fa57506104f9826114df565b5b9050919050565b600061050d6007611549565b905090565b60606000805461052190613917565b80601f016020809104026020016040519081016040528092919081815260200182805461054d90613917565b801561059a5780601f1061056f5761010080835404028352916020019161059a565b820191906000526020600020905b81548152906001019060200180831161057d57829003601f168201915b5050505050905090565b60006105af82611557565b6105ee576040517f08c379a00000000000000000000000000000000000000000000000000000000081526004016105e5906135d8565b60405180910390fd5b6004600083815260200190815260200160002060009054906101000a900473ffffffffffffffffffffffffffffffffffffffff169050919050565b600061063482610a07565b90508073ffffffffffffffffffffffffffffffffffffffff168373ffffffffffffffffffffffffffffffffffffffff1614156106a5576040517f08c379a000000000000000000000000000000000000000000000000000000000815260040161069c90613638565b60405180910390fd5b8073ffffffffffffffffffffffffffffffffffffffff166106c46115c3565b73ffffffffffffffffffffffffffffffffffffffff1614806106f357506106f2816106ed6115c3565b6113b2565b5b610732576040517f08c379a0000000000000000000000000000000000000000000000000000000008152600401610729906134f8565b60405180910390fd5b61073c83836115cb565b505050565b61075261074c6115c3565b82611684565b610791576040517f08c379a000000000000000000000000000000000000000000000000000000000815260040161078890613658565b60405180910390fd5b61079c838383611762565b505050565b606060006107d56107b1846119be565b6040516020016107c191906132e7565b604051602081830303815290604052611b6b565b9050600b80549050816107e89190613992565b9050600b8181548110610824577f4e487b7100000000000000000000000000000000000000000000000000000000600052603260045260246000fd5b90600052602060002001805461083990613917565b80601f016020809104026020016040519081016040528092919081815260200182805461086590613917565b80156108b25780601f10610887576101008083540402835291602001916108b2565b820191906000526020600020905b81548152906001019060200180831161089557829003601f168201915b5050505050915050919050565b6000600854905090565b6108e483838360405180602001604052806000815250610ea2565b505050565b6060600061091d6108f9846119be565b604051602001610909919061332b565b604051602081830303815290604052611b6b565b9050600e80549050816109309190613992565b9050600e818154811061096c577f4e487b7100000000000000000000000000000000000000000000000000000000600052603260045260246000fd5b90600052602060002001805461098190613917565b80601f01602080910402602001604051908101604052809291908181526020018280546109ad90613917565b80156109fa5780601f106109cf576101008083540402835291602001916109fa565b820191906000526020600020905b8154815290600101906020018083116109dd57829003601f168201915b5050505050915050919050565b6000806002600084815260200190815260200160002060009054906101000a900473ffffffffffffffffffffffffffffffffffffffff169050600073ffffffffffffffffffffffffffffffffffffffff168173ffffffffffffffffffffffffffffffffffffffff161415610ab0576040517f08c379a0000000000000000000000000000000000000000000000000000000008152600401610aa790613538565b60405180910390fd5b80915050919050565b60008073ffffffffffffffffffffffffffffffffffffffff168273ffffffffffffffffffffffffffffffffffffffff161415610b2a576040517f08c379a0000000000000000000000000000000000000000000000000000000008152600401610b2190613518565b60405180910390fd5b600360008373ffffffffffffffffffffffffffffffffffffffff1673ffffffffffffffffffffffffffffffffffffffff168152602001908152602001600020549050919050565b606060018054610b8090613917565b80601f0160208091040260200160405190810160405280929190818152602001828054610bac90613917565b8015610bf95780601f10610bce57610100808354040283529160200191610bf9565b820191906000526020600020905b815481529060010190602001808311610bdc57829003601f168201915b5050505050905090565b610c0b6115c3565b73ffffffffffffffffffffffffffffffffffffffff168273ffffffffffffffffffffffffffffffffffffffff161415610c79576040517f08c379a0000000000000000000000000000000000000000000000000000000008152600401610c70906134b8565b60405180910390fd5b8060056000610c866115c3565b73ffffffffffffffffffffffffffffffffffffffff1673ffffffffffffffffffffffffffffffffffffffff16815260200190815260200160002060008473ffffffffffffffffffffffffffffffffffffffff1673ffffffffffffffffffffffffffffffffffffffff16815260200190815260200160002060006101000a81548160ff0219169083151502179055508173ffffffffffffffffffffffffffffffffffffffff16610d336115c3565b73ffffffffffffffffffffffffffffffffffffffff167f17307eab39ab6107e8899845ad3d59bd9653f200f220920489ca2b5937696c3183604051610d7891906133dd565b60405180910390a35050565b60606000610db8610d94846119be565b604051602001610da49190613280565b604051602081830303815290604052611b6b565b9050600c8054905081610dcb9190613992565b9050600c8181548110610e07577f4e487b7100000000000000000000000000000000000000000000000000000000600052603260045260246000fd5b906000526020600020018054610e1c90613917565b80601f0160208091040260200160405190810160405280929190818152602001828054610e4890613917565b8015610e955780601f10610e6a57610100808354040283529160200191610e95565b820191906000526020600020905b815481529060010190602001808311610e7857829003601f168201915b5050505050915050919050565b610eb3610ead6115c3565b83611684565b610ef2576040517f08c379a0000000000000000000000000000000000000000000000000000000008152600401610ee990613658565b60405180910390fd5b610efe84848484611b9e565b50505050565b60606000610f38610f14846119be565b604051602001610f24919061325e565b604051602081830303815290604052611b6b565b9050600d8054905081610f4b9190613992565b9050600d8181548110610f87577f4e487b7100000000000000000000000000000000000000000000000000000000600052603260045260246000fd5b906000526020600020018054610f9c90613917565b80601f0160208091040260200160405190810160405280929190818152602001828054610fc890613917565b80156110155780601f10610fea57610100808354040283529160200191611015565b820191906000526020600020905b815481529060010190602001808311610ff857829003601f168201915b5050505050915050919050565b606061102d82611557565b61106c576040517f08c379a0000000000000000000000000000000000000000000000000000000008152600401611063906135b8565b60405180910390fd5b600060066000848152602001908152602001600020805461108c90613917565b80601f01602080910402602001604051908101604052809291908181526020018280546110b890613917565b80156111055780601f106110da57610100808354040283529160200191611105565b820191906000526020600020905b8154815290600101906020018083116110e857829003601f168201915b505050505090506000611116611bfa565b905060008151141561112c57819250505061116f565b6000825111156111615780826040516020016111499291906131c0565b6040516020818303038152906040529250505061116f565b61116a84611c11565b925050505b919050565b60006111806007611549565b905060085481106111c6576040517f08c379a00000000000000000000000000000000000000000000000000000000081526004016111bd90613578565b60405180910390fd5b60006111d1826107a1565b905060006111de83610d84565b905060006111eb84610f04565b90506000838383604051602001611204939291906131e4565b60405160208183030381529060405290506000611220866108e9565b90506000600982600a8560405160200161123d9493929190613215565b604051602081830303815290604052905060006112828461125d84611cb8565b60405160200161126e9291906132a2565b604051602081830303815290604052611cb8565b90506000816040516020016112979190613309565b60405160208183030381529060405290506112e66040518060400160405280601581526020017f0a2d2d2d2d2d2d2d2d2d2d2d2d2d2d2d2d2d2d2d2d0000000000000000000000815250611446565b6112ef81611446565b61132d6040518060400160405280601581526020017f2d2d2d2d2d2d2d2d2d2d2d2d2d2d2d2d2d2d2d2d0a0000000000000000000000815250611446565b611337338a611e76565b6113418982611e94565b61134b6007611f08565b61136e604051806060016040528060258152602001613aed602591398a33611f1e565b7febb98688741ffa4c7589bf325de30cf7becb63de567842e1ccdb6cb949fdc82c338a60405161139f9291906133b4565b60405180910390a1505050505050505050565b6000600560008473ffffffffffffffffffffffffffffffffffffffff1673ffffffffffffffffffffffffffffffffffffffff16815260200190815260200160002060008373ffffffffffffffffffffffffffffffffffffffff1673ffffffffffffffffffffffffffffffffffffffff16815260200190815260200160002060009054906101000a900460ff16905092915050565b6114dc8160405160240161145a91906133f8565b6040516020818303038152906040527f41304fac000000000000000000000000000000000000000000000000000000007bffffffffffffffffffffffffffffffffffffffffffffffffffffffff19166020820180517bffffffffffffffffffffffffffffffffffffffffffffffffffffffff8381831617835250505050611fbd565b50565b60007f01ffc9a7000000000000000000000000000000000000000000000000000000007bffffffffffffffffffffffffffffffffffffffffffffffffffffffff1916827bffffffffffffffffffffffffffffffffffffffffffffffffffffffff1916149050919050565b600081600001549050919050565b60008073ffffffffffffffffffffffffffffffffffffffff166002600084815260200190815260200160002060009054906101000a900473ffffffffffffffffffffffffffffffffffffffff1673ffffffffffffffffffffffffffffffffffffffff1614159050919050565b600033905090565b816004600083815260200190815260200160002060006101000a81548173ffffffffffffffffffffffffffffffffffffffff021916908373ffffffffffffffffffffffffffffffffffffffff160217905550808273ffffffffffffffffffffffffffffffffffffffff1661163e83610a07565b73ffffffffffffffffffffffffffffffffffffffff167f8c5be1e5ebec7d5bd14f71427d1e84f3dd0314c0f7b2291e5b200ac8c7c3b92560405160405180910390a45050565b600061168f82611557565b6116ce576040517f08c379a00000000000000000000000000000000000000000000000000000000081526004016116c5906134d8565b60405180910390fd5b60006116d983610a07565b90508073ffffffffffffffffffffffffffffffffffffffff168473ffffffffffffffffffffffffffffffffffffffff16148061174857508373ffffffffffffffffffffffffffffffffffffffff16611730846105a4565b73ffffffffffffffffffffffffffffffffffffffff16145b80611759575061175881856113b2565b5b91505092915050565b8273ffffffffffffffffffffffffffffffffffffffff1661178282610a07565b73ffffffffffffffffffffffffffffffffffffffff16146117d8576040517f08c379a00000000000000000000000000000000000000000000000000000000081526004016117cf906135f8565b60405180910390fd5b600073ffffffffffffffffffffffffffffffffffffffff168273ffffffffffffffffffffffffffffffffffffffff161415611848576040517f08c379a000000000000000000000000000000000000000000000000000000000815260040161183f90613498565b60405180910390fd5b611853838383611fe6565b61185e6000826115cb565b6001600360008573ffffffffffffffffffffffffffffffffffffffff1673ffffffffffffffffffffffffffffffffffffffff16815260200190815260200160002060008282546118ae919061382d565b925050819055506001600360008473ffffffffffffffffffffffffffffffffffffffff1673ffffffffffffffffffffffffffffffffffffffff1681526020019081526020016000206000828254611905919061374c565b92505081905550816002600083815260200190815260200160002060006101000a81548173ffffffffffffffffffffffffffffffffffffffff021916908373ffffffffffffffffffffffffffffffffffffffff160217905550808273ffffffffffffffffffffffffffffffffffffffff168473ffffffffffffffffffffffffffffffffffffffff167fddf252ad1be2c89b69c2b068fc378daa952ba7f163c4a11628f55a4df523b3ef60405160405180910390a4505050565b60606000821415611a06576040518060400160405280600181526020017f30000000000000000000000000000000000000000000000000000000000000008152509050611b66565b600082905060005b60008214611a38578080611a2190613949565b915050600a82611a3191906137a2565b9150611a0e565b60008167ffffffffffffffff811115611a7a577f4e487b7100000000000000000000000000000000000000000000000000000000600052604160045260246000fd5b6040519080825280601f01601f191660200182016040528015611aac5781602001600182028036833780820191505090505b5090505b60008514611b5f57600182611ac5919061382d565b9150600a85611ad49190613992565b6030611ae0919061374c565b60f81b818381518110611b1c577f4e487b7100000000000000000000000000000000000000000000000000000000600052603260045260246000fd5b60200101907effffffffffffffffffffffffffffffffffffffffffffffffffffffffffffff1916908160001a905350600a85611b5891906137a2565b9450611ab0565b8093505050505b919050565b600081604051602001611b7e91906131a9565b6040516020818303038152906040528051906020012060001c9050919050565b611ba9848484611762565b611bb584848484611feb565b611bf4576040517f08c379a0000000000000000000000000000000000000000000000000000000008152600401611beb90613458565b60405180910390fd5b50505050565b606060405180602001604052806000815250905090565b6060611c1c82611557565b611c5b576040517f08c379a0000000000000000000000000000000000000000000000000000000008152600401611c5290613618565b60405180910390fd5b6000611c65611bfa565b90506000815111611c855760405180602001604052806000815250611cb0565b80611c8f846119be565b604051602001611ca09291906131c0565b6040516020818303038152906040525b915050919050565b60606000825190506000811415611ce15760405180602001604052806000815250915050611e71565b60006003600283611cf2919061374c565b611cfc91906137a2565b6004611d0891906137d3565b90506000602082611d19919061374c565b67ffffffffffffffff811115611d58577f4e487b7100000000000000000000000000000000000000000000000000000000600052604160045260246000fd5b6040519080825280601f01601f191660200182016040528015611d8a5781602001600182028036833780820191505090505b5090506000604051806060016040528060408152602001613b12604091399050600181016020830160005b86811015611e2e5760038101905062ffffff818a015116603f8160121c168401518060081b905060ff603f83600c1c1686015116810190508060081b905060ff603f8360061c1686015116810190508060081b905060ff603f831686015116810190508060e01b90508084526004840193505050611db5565b506003860660018114611e485760028114611e5857611e63565b613d3d60f01b6002830352611e63565b603d60f81b60018303525b508484525050819450505050505b919050565b611e90828260405180602001604052806000815250612182565b5050565b611e9d82611557565b611edc576040517f08c379a0000000000000000000000000000000000000000000000000000000008152600401611ed390613558565b60405180910390fd5b80600660008481526020019081526020016000209080519060200190611f039291906123be565b505050565b6001816000016000828254019250508190555050565b611fb8838383604051602401611f369392919061341a565b6040516020818303038152906040527fe3849f79000000000000000000000000000000000000000000000000000000007bffffffffffffffffffffffffffffffffffffffffffffffffffffffff19166020820180517bffffffffffffffffffffffffffffffffffffffffffffffffffffffff8381831617835250505050611fbd565b505050565b60008151905060006a636f6e736f6c652e6c6f679050602083016000808483855afa5050505050565b505050565b600061200c8473ffffffffffffffffffffffffffffffffffffffff166121dd565b15612175578373ffffffffffffffffffffffffffffffffffffffff1663150b7a026120356115c3565b8786866040518563ffffffff1660e01b81526004016120579493929190613368565b602060405180830381600087803b15801561207157600080fd5b505af19250505080156120a257506040513d601f19601f8201168201806040525081019061209f9190612702565b60015b612125573d80600081146120d2576040519150601f19603f3d011682016040523d82523d6000602084013e6120d7565b606091505b5060008151141561211d576040517f08c379a000000000000000000000000000000000000000000000000000000000815260040161211490613458565b60405180910390fd5b805181602001fd5b63150b7a0260e01b7bffffffffffffffffffffffffffffffffffffffffffffffffffffffff1916817bffffffffffffffffffffffffffffffffffffffffffffffffffffffff19161491505061217a565b600190505b949350505050565b61218c83836121f0565b6121996000848484611feb565b6121d8576040517f08c379a00000000000000000000000000000000000000000000000000000000081526004016121cf90613458565b60405180910390fd5b505050565b600080823b905060008111915050919050565b600073ffffffffffffffffffffffffffffffffffffffff168273ffffffffffffffffffffffffffffffffffffffff161415612260576040517f08c379a000000000000000000000000000000000000000000000000000000000815260040161225790613598565b60405180910390fd5b61226981611557565b156122a9576040517f08c379a00000000000000000000000000000000000000000000000000000000081526004016122a090613478565b60405180910390fd5b6122b560008383611fe6565b6001600360008473ffffffffffffffffffffffffffffffffffffffff1673ffffffffffffffffffffffffffffffffffffffff1681526020019081526020016000206000828254612305919061374c565b92505081905550816002600083815260200190815260200160002060006101000a81548173ffffffffffffffffffffffffffffffffffffffff021916908373ffffffffffffffffffffffffffffffffffffffff160217905550808273ffffffffffffffffffffffffffffffffffffffff16600073ffffffffffffffffffffffffffffffffffffffff167fddf252ad1be2c89b69c2b068fc378daa952ba7f163c4a11628f55a4df523b3ef60405160405180910390a45050565b8280546123ca90613917565b90600052602060002090601f0160209004810192826123ec5760008555612433565b82601f1061240557805160ff1916838001178555612433565b82800160010185558215612433579182015b82811115612432578251825591602001919060010190612417565b5b5090506124409190612444565b5090565b5b8082111561245d576000816000905550600101612445565b5090565b600061247461246f846136c4565b613693565b90508281526020810184848401111561248c57600080fd5b6124978482856138d5565b509392505050565b6000813590506124ae81613a90565b92915050565b6000813590506124c381613aa7565b92915050565b6000813590506124d881613abe565b92915050565b6000815190506124ed81613abe565b92915050565b600082601f83011261250457600080fd5b8135612514848260208601612461565b91505092915050565b60008135905061252c81613ad5565b92915050565b60006020828403121561254457600080fd5b60006125528482850161249f565b91505092915050565b6000806040838503121561256e57600080fd5b600061257c8582860161249f565b925050602061258d8582860161249f565b9150509250929050565b6000806000606084860312156125ac57600080fd5b60006125ba8682870161249f565b93505060206125cb8682870161249f565b92505060406125dc8682870161251d565b9150509250925092565b600080600080608085870312156125fc57600080fd5b600061260a8782880161249f565b945050602061261b8782880161249f565b935050604061262c8782880161251d565b925050606085013567ffffffffffffffff81111561264957600080fd5b612655878288016124f3565b91505092959194509250565b6000806040838503121561267457600080fd5b60006126828582860161249f565b9250506020612693858286016124b4565b9150509250929050565b600080604083850312156126b057600080fd5b60006126be8582860161249f565b92505060206126cf8582860161251d565b9150509250929050565b6000602082840312156126eb57600080fd5b60006126f9848285016124c9565b91505092915050565b60006020828403121561271457600080fd5b6000612722848285016124de565b91505092915050565b60006020828403121561273d57600080fd5b600061274b8482850161251d565b91505092915050565b61275d81613861565b82525050565b61276c81613873565b82525050565b600061277d82613709565b612787818561371f565b93506127978185602086016138e4565b6127a081613a7f565b840191505092915050565b60006127b682613714565b6127c08185613730565b93506127d08185602086016138e4565b6127d981613a7f565b840191505092915050565b60006127ef82613714565b6127f98185613741565b93506128098185602086016138e4565b80840191505092915050565b6000815461282281613917565b61282c8186613741565b9450600182166000811461284757600181146128585761288b565b60ff1983168652818601935061288b565b612861856136f4565b60005b8381101561288357815481890152600182019150602081019050612864565b838801955050505b50505092915050565b60006128a1603283613730565b91507f4552433732313a207472616e7366657220746f206e6f6e20455243373231526560008301527f63656976657220696d706c656d656e74657200000000000000000000000000006020830152604082019050919050565b6000612907601c83613730565b91507f4552433732313a20746f6b656e20616c7265616479206d696e746564000000006000830152602082019050919050565b6000612947600a83613741565b91507f54484952445f574f5244000000000000000000000000000000000000000000006000830152600a82019050919050565b6000612987602483613730565b91507f4552433732313a207472616e7366657220746f20746865207a65726f2061646460008301527f72657373000000000000000000000000000000000000000000000000000000006020830152604082019050919050565b60006129ed601983613730565b91507f4552433732313a20617070726f766520746f2063616c6c6572000000000000006000830152602082019050919050565b6000612a2d606383613741565b91507f222c20226465736372697074696f6e223a20224120686967686c79206163636c60008301527f61696d656420636f6c6c656374696f6e206f6620737175617265732e222c202260208301527f696d616765223a2022646174613a696d6167652f7376672b786d6c3b6261736560408301527f36342c00000000000000000000000000000000000000000000000000000000006060830152606382019050919050565b6000612adf600b83613741565b91507f5345434f4e445f574f52440000000000000000000000000000000000000000006000830152600b82019050919050565b6000612b1f602c83613730565b91507f4552433732313a206f70657261746f7220717565727920666f72206e6f6e657860008301527f697374656e7420746f6b656e00000000000000000000000000000000000000006020830152604082019050919050565b6000612b85600d83613741565b91507f3c2f746578743e3c2f7376673e000000000000000000000000000000000000006000830152600d82019050919050565b6000612bc5603883613730565b91507f4552433732313a20617070726f76652063616c6c6572206973206e6f74206f7760008301527f6e6572206e6f7220617070726f76656420666f7220616c6c00000000000000006020830152604082019050919050565b6000612c2b602a83613730565b91507f4552433732313a2062616c616e636520717565727920666f7220746865207a6560008301527f726f2061646472657373000000000000000000000000000000000000000000006020830152604082019050919050565b6000612c91602983613730565b91507f4552433732313a206f776e657220717565727920666f72206e6f6e657869737460008301527f656e7420746f6b656e00000000000000000000000000000000000000000000006020830152604082019050919050565b6000612cf7602e83613730565b91507f45524337323155524953746f726167653a2055524920736574206f66206e6f6e60008301527f6578697374656e7420746f6b656e0000000000000000000000000000000000006020830152604082019050919050565b6000612d5d603083613730565b91507f736f7272792c2077652068617665206d696e746564206d6f726520616c6c206160008301527f7661696c61626c65206e746673203a29000000000000000000000000000000006020830152604082019050919050565b6000612dc3600283613741565b91507f227d0000000000000000000000000000000000000000000000000000000000006000830152600282019050919050565b6000612e03602083613730565b91507f4552433732313a206d696e7420746f20746865207a65726f20616464726573736000830152602082019050919050565b6000612e43603183613730565b91507f45524337323155524953746f726167653a2055524920717565727920666f722060008301527f6e6f6e6578697374656e7420746f6b656e0000000000000000000000000000006020830152604082019050919050565b6000612ea9602c83613730565b91507f4552433732313a20617070726f76656420717565727920666f72206e6f6e657860008301527f697374656e7420746f6b656e00000000000000000000000000000000000000006020830152604082019050919050565b6000612f0f602983613730565b91507f4552433732313a207472616e73666572206f6620746f6b656e2074686174206960008301527f73206e6f74206f776e00000000000000000000000000000000000000000000006020830152604082019050919050565b6000612f75602f83613730565b91507f4552433732314d657461646174613a2055524920717565727920666f72206e6f60008301527f6e6578697374656e7420746f6b656e00000000000000000000000000000000006020830152604082019050919050565b6000612fdb600a83613741565b91507f7b226e616d65223a2022000000000000000000000000000000000000000000006000830152600a82019050919050565b600061301b602183613730565b91507f4552433732313a20617070726f76616c20746f2063757272656e74206f776e6560008301527f72000000000000000000000000000000000000000000000000000000000000006020830152604082019050919050565b6000613081600a83613741565b91507f46495253545f574f5244000000000000000000000000000000000000000000006000830152600a82019050919050565b60006130c1601d83613741565b91507f646174613a6170706c69636174696f6e2f6a736f6e3b6261736536342c0000006000830152601d82019050919050565b6000613101603183613730565b91507f4552433732313a207472616e736665722063616c6c6572206973206e6f74206f60008301527f776e6572206e6f7220617070726f7665640000000000000000000000000000006020830152604082019050919050565b6000613167600583613741565b91507f434f4c4f520000000000000000000000000000000000000000000000000000006000830152600582019050919050565b6131a3816138cb565b82525050565b60006131b582846127e4565b915081905092915050565b60006131cc82856127e4565b91506131d882846127e4565b91508190509392505050565b60006131f082866127e4565b91506131fc82856127e4565b915061320882846127e4565b9150819050949350505050565b60006132218287612815565b915061322d82866127e4565b91506132398285612815565b915061324582846127e4565b915061325082612b78565b915081905095945050505050565b60006132698261293a565b915061327582846127e4565b915081905092915050565b600061328b82612ad2565b915061329782846127e4565b915081905092915050565b60006132ad82612fce565b91506132b982856127e4565b91506132c482612a20565b91506132d082846127e4565b91506132db82612db6565b91508190509392505050565b60006132f282613074565b91506132fe82846127e4565b915081905092915050565b6000613314826130b4565b915061332082846127e4565b915081905092915050565b60006133368261315a565b915061334282846127e4565b915081905092915050565b60006020820190506133626000830184612754565b92915050565b600060808201905061337d6000830187612754565b61338a6020830186612754565b613397604083018561319a565b81810360608301526133a98184612772565b905095945050505050565b60006040820190506133c96000830185612754565b6133d6602083018461319a565b9392505050565b60006020820190506133f26000830184612763565b92915050565b6000602082019050818103600083015261341281846127ab565b905092915050565b6000606082019050818103600083015261343481866127ab565b9050613443602083018561319a565b6134506040830184612754565b949350505050565b6000602082019050818103600083015261347181612894565b9050919050565b60006020820190508181036000830152613491816128fa565b9050919050565b600060208201905081810360008301526134b18161297a565b9050919050565b600060208201905081810360008301526134d1816129e0565b9050919050565b600060208201905081810360008301526134f181612b12565b9050919050565b6000602082019050818103600083015261351181612bb8565b9050919050565b6000602082019050818103600083015261353181612c1e565b9050919050565b6000602082019050818103600083015261355181612c84565b9050919050565b6000602082019050818103600083015261357181612cea565b9050919050565b6000602082019050818103600083015261359181612d50565b9050919050565b600060208201905081810360008301526135b181612df6565b9050919050565b600060208201905081810360008301526135d181612e36565b9050919050565b600060208201905081810360008301526135f181612e9c565b9050919050565b6000602082019050818103600083015261361181612f02565b9050919050565b6000602082019050818103600083015261363181612f68565b9050919050565b600060208201905081810360008301526136518161300e565b9050919050565b60006020820190508181036000830152613671816130f4565b9050919050565b600060208201905061368d600083018461319a565b92915050565b6000604051905081810181811067ffffffffffffffff821117156136ba576136b9613a50565b5b8060405250919050565b600067ffffffffffffffff8211156136df576136de613a50565b5b601f19601f8301169050602081019050919050565b60008190508160005260206000209050919050565b600081519050919050565b600081519050919050565b600082825260208201905092915050565b600082825260208201905092915050565b600081905092915050565b6000613757826138cb565b9150613762836138cb565b9250827fffffffffffffffffffffffffffffffffffffffffffffffffffffffffffffffff03821115613797576137966139c3565b5b828201905092915050565b60006137ad826138cb565b91506137b8836138cb565b9250826137c8576137c76139f2565b5b828204905092915050565b60006137de826138cb565b91506137e9836138cb565b9250817fffffffffffffffffffffffffffffffffffffffffffffffffffffffffffffffff0483118215151615613822576138216139c3565b5b828202905092915050565b6000613838826138cb565b9150613843836138cb565b925082821015613856576138556139c3565b5b828203905092915050565b600061386c826138ab565b9050919050565b60008115159050919050565b60007fffffffff0000000000000000000000000000000000000000000000000000000082169050919050565b600073ffffffffffffffffffffffffffffffffffffffff82169050919050565b6000819050919050565b82818337600083830152505050565b60005b838110156139025780820151818401526020810190506138e7565b83811115613911576000848401525b50505050565b6000600282049050600182168061392f57607f821691505b6020821081141561394357613942613a21565b5b50919050565b6000613954826138cb565b91507fffffffffffffffffffffffffffffffffffffffffffffffffffffffffffffffff821415613987576139866139c3565b5b600182019050919050565b600061399d826138cb565b91506139a8836138cb565b9250826139b8576139b76139f2565b5b828206905092915050565b7f4e487b7100000000000000000000000000000000000000000000000000000000600052601160045260246000fd5b7f4e487b7100000000000000000000000000000000000000000000000000000000600052601260045260246000fd5b7f4e487b7100000000000000000000000000000000000000000000000000000000600052602260045260246000fd5b7f4e487b7100000000000000000000000000000000000000000000000000000000600052604160045260246000fd5b6000601f19601f8301169050919050565b613a9981613861565b8114613aa457600080fd5b50565b613ab081613873565b8114613abb57600080fd5b50565b613ac78161387f565b8114613ad257600080fd5b50565b613ade816138cb565b8114613ae957600080fd5b5056fe416e204e465420772f20494420257320686173206265656e206d696e74656420746f2025734142434445464748494a4b4c4d4e4f505152535455565758595a6162636465666768696a6b6c6d6e6f707172737475767778797a303132333435363738392b2fa264697066735822122032f9bd9cb09a313e2c5033458a61e97c0087ff1c66ef8fe703703a6cc6df0d7064736f6c634300080000333c73766720786d6c6e733d27687474703a2f2f7777772e77332e6f72672f323030302f73766727207072657365727665417370656374526174696f3d27784d696e594d696e206d656574272076696577426f783d273020302033353020333530273e3c7374796c653e2e62617365207b2066696c6c3a2077686974653b20666f6e742d66616d696c793a2073657269663b20666f6e742d73697a653a20323470783b207d3c2f7374796c653e3c726563742077696474683d273130302527206865696768743d2731303025272066696c6c3d27272f3e3c7465787420783d273530252720793d273530252720636c6173733d27626173652720646f6d696e616e742d626173656c696e653d276d6964646c652720746578742d616e63686f723d276d6964646c65273e",
  "linkReferences": {},
  "deployedLinkReferences": {}
}